{
  "contractName": "Calculator",
  "abi": [
    {
      "inputs": [
        {
          "name": "num",
          "type": "uint256"
        }
      ],
      "payable": false,
      "stateMutability": "nonpayable",
      "type": "function",
      "constant": false,
      "name": "addToNumber",
      "outputs": []
    },
    {
      "constant": false,
      "inputs": [
        {
          "name": "num",
          "type": "uint256"
        }
      ],
      "name": "substractNumber",
      "outputs": [],
      "payable": false,
      "stateMutability": "nonpayable",
      "type": "function"
    },
    {
      "constant": false,
      "inputs": [
        {
          "name": "num",
          "type": "uint256"
        }
      ],
      "name": "multiplyWithNumber",
      "outputs": [],
      "payable": false,
      "stateMutability": "nonpayable",
      "type": "function"
    },
    {
      "constant": false,
      "inputs": [],
      "name": "getResult",
      "outputs": [
        {
          "name": "",
          "type": "uint256"
        }
      ],
      "payable": false,
      "stateMutability": "nonpayable",
      "type": "function"
    },
    {
      "constant": false,
      "inputs": [
        {
          "name": "num",
          "type": "uint256"
        }
      ],
      "name": "half",
      "outputs": [],
      "payable": false,
      "stateMutability": "nonpayable",
      "type": "function"
    },
    {
      "inputs": [
        {
          "name": "num",
          "type": "uint256"
        }
      ],
      "payable": false,
      "stateMutability": "nonpayable",
      "type": "function",
      "constant": false,
      "name": "double",
      "outputs": []
    },
    {
      "constant": false,
      "inputs": [
        {
          "name": "num",
          "type": "uint256"
        }
      ],
      "name": "divideByNumber",
      "outputs": [],
      "payable": false,
      "stateMutability": "nonpayable",
      "type": "function"
    },
    {
      "inputs": [],
      "payable": false,
      "stateMutability": "nonpayable",
      "type": "constructor"
    }
  ],
  "bytecode": "0x6060604052600a600055341561001457600080fd5b61022c806100236000396000f300606060405260043610610083576000357c0100000000000000000000000000000000000000000000000000000000900463ffffffff16806306ccd230146100885780630b7e4e7f146100ab578063b4679b06146100ce578063de292789146100f1578063dee6088b1461011a578063eee972061461013d578063f5cb911d14610160575b600080fd5b341561009357600080fd5b6100a96004808035906020019091905050610183565b005b34156100b657600080fd5b6100cc6004808035906020019091905050610195565b005b34156100d957600080fd5b6100ef60048080359060200190919050506101a7565b005b34156100fc57600080fd5b6101046101b9565b6040518082815260200191505060405180910390f35b341561012557600080fd5b61013b60048080359060200190919050506101c2565b005b341561014857600080fd5b61015e60048080359060200190919050506101d8565b005b341561016b57600080fd5b61018160048080359060200190919050506101e5565b005b80600080828254019250508190555050565b80600080828254039250508190555050565b80600080828254029250508190555050565b60008054905090565b6002818115156101ce57fe5b0460008190555050565b6002810260008190555050565b806000808282548115156101f557fe5b0492505081905550505600a165627a7a7230582077706e8adde86d7b275eaa3ce80f9344b4976072b6f47232e37dbc360c88fa390029",
  "source": "pragma solidity ^0.4.4;\n\ncontract Calculator {\n\n  // Result of the operation are always stored in this variable\n  uint result=10;\n\n  function Calculator() {\n    // constructor\n    \n  }\n\n  // returns the result\n  function getResult() returns (uint){\n    return result;\n  }\n\n  // result = result + num\n  function addToNumber(uint num)  {\n    result += num;\n  }\n\n  // result = result - num\n  function substractNumber(uint num)  {\n    result -= num;\n  }\n\n  // result = result * num\n  function multiplyWithNumber(uint num) {\n    result *= num;\n  }\n\n  // result = result / num\n  function divideByNumber(uint num) {\n    result /= num;\n  }\n\n  function half(uint num) {\n  \tresult = num / 2;\n  }\n\n  function double(uint num) {\n  \tresult = num * 2;\n  }\n\n}\n",
  "sourcePath": "/Users/davetoomey/Documents/eth-projects/truffle-demo/contracts/Calculator.sol",
  "compiler": {
    "name": "solc",
    "version": "0.4.18+commit.9cf6e910.Emscripten.clang"
  },
  "schemaVersion": "1.0.1",
  "updatedAt": "2018-01-02T07:21:52.681Z"
}